{"abi":[{"type":"constructor","inputs":[],"stateMutability":"nonpayable"},{"type":"function","name":"allowance","inputs":[{"name":"owner","type":"address","internalType":"address"},{"name":"spender","type":"address","internalType":"address"}],"outputs":[{"name":"","type":"uint256","internalType":"uint256"}],"stateMutability":"view"},{"type":"function","name":"approve","inputs":[{"name":"spender","type":"address","internalType":"address"},{"name":"value","type":"uint256","internalType":"uint256"}],"outputs":[{"name":"","type":"bool","internalType":"bool"}],"stateMutability":"nonpayable"},{"type":"function","name":"asset","inputs":[],"outputs":[{"name":"","type":"address","internalType":"address"}],"stateMutability":"view"},{"type":"function","name":"balanceOf","inputs":[{"name":"account","type":"address","internalType":"address"}],"outputs":[{"name":"","type":"uint256","internalType":"uint256"}],"stateMutability":"view"},{"type":"function","name":"borrow","inputs":[{"name":"assets","type":"uint256","internalType":"uint256"},{"name":"collateral","type":"uint256","internalType":"uint256"},{"name":"_position","type":"uint8","internalType":"enum EverSwap.Position"}],"outputs":[{"name":"","type":"bool","internalType":"bool"}],"stateMutability":"nonpayable"},{"type":"function","name":"calculateLeverage","inputs":[{"name":"collateral","type":"uint256","internalType":"uint256"},{"name":"debt","type":"uint256","internalType":"uint256"}],"outputs":[{"name":"","type":"uint256","internalType":"uint256"}],"stateMutability":"pure"},{"type":"function","name":"closeBorrowerPosition","inputs":[{"name":"_borrower","type":"address","internalType":"address"}],"outputs":[{"name":"","type":"bool","internalType":"bool"}],"stateMutability":"nonpayable"},{"type":"function","name":"convertToAssets","inputs":[{"name":"shares","type":"uint256","internalType":"uint256"}],"outputs":[{"name":"","type":"uint256","internalType":"uint256"}],"stateMutability":"view"},{"type":"function","name":"convertToShares","inputs":[{"name":"assets","type":"uint256","internalType":"uint256"}],"outputs":[{"name":"","type":"uint256","internalType":"uint256"}],"stateMutability":"view"},{"type":"function","name":"decimals","inputs":[],"outputs":[{"name":"","type":"uint8","internalType":"uint8"}],"stateMutability":"view"},{"type":"function","name":"deposit","inputs":[{"name":"assets","type":"uint256","internalType":"uint256"},{"name":"receiver","type":"address","internalType":"address"}],"outputs":[{"name":"","type":"uint256","internalType":"uint256"}],"stateMutability":"nonpayable"},{"type":"function","name":"liquidate","inputs":[{"name":"borrower","type":"address","internalType":"address"}],"outputs":[{"name":"","type":"bool","internalType":"bool"}],"stateMutability":"nonpayable"},{"type":"function","name":"maxDeposit","inputs":[{"name":"","type":"address","internalType":"address"}],"outputs":[{"name":"","type":"uint256","internalType":"uint256"}],"stateMutability":"view"},{"type":"function","name":"maxMint","inputs":[{"name":"","type":"address","internalType":"address"}],"outputs":[{"name":"","type":"uint256","internalType":"uint256"}],"stateMutability":"view"},{"type":"function","name":"maxRedeem","inputs":[{"name":"owner","type":"address","internalType":"address"}],"outputs":[{"name":"","type":"uint256","internalType":"uint256"}],"stateMutability":"view"},{"type":"function","name":"maxWithdraw","inputs":[{"name":"owner","type":"address","internalType":"address"}],"outputs":[{"name":"","type":"uint256","internalType":"uint256"}],"stateMutability":"view"},{"type":"function","name":"mint","inputs":[{"name":"shares","type":"uint256","internalType":"uint256"},{"name":"receiver","type":"address","internalType":"address"}],"outputs":[{"name":"","type":"uint256","internalType":"uint256"}],"stateMutability":"nonpayable"},{"type":"function","name":"name","inputs":[],"outputs":[{"name":"","type":"string","internalType":"string"}],"stateMutability":"view"},{"type":"function","name":"previewDeposit","inputs":[{"name":"assets","type":"uint256","internalType":"uint256"}],"outputs":[{"name":"","type":"uint256","internalType":"uint256"}],"stateMutability":"view"},{"type":"function","name":"previewMint","inputs":[{"name":"shares","type":"uint256","internalType":"uint256"}],"outputs":[{"name":"","type":"uint256","internalType":"uint256"}],"stateMutability":"view"},{"type":"function","name":"previewRedeem","inputs":[{"name":"shares","type":"uint256","internalType":"uint256"}],"outputs":[{"name":"","type":"uint256","internalType":"uint256"}],"stateMutability":"view"},{"type":"function","name":"previewWithdraw","inputs":[{"name":"assets","type":"uint256","internalType":"uint256"}],"outputs":[{"name":"","type":"uint256","internalType":"uint256"}],"stateMutability":"view"},{"type":"function","name":"redeem","inputs":[{"name":"shares","type":"uint256","internalType":"uint256"},{"name":"receiver","type":"address","internalType":"address"},{"name":"owner","type":"address","internalType":"address"}],"outputs":[{"name":"","type":"uint256","internalType":"uint256"}],"stateMutability":"nonpayable"},{"type":"function","name":"symbol","inputs":[],"outputs":[{"name":"","type":"string","internalType":"string"}],"stateMutability":"view"},{"type":"function","name":"totalAssets","inputs":[],"outputs":[{"name":"","type":"uint256","internalType":"uint256"}],"stateMutability":"view"},{"type":"function","name":"totalSupply","inputs":[],"outputs":[{"name":"","type":"uint256","internalType":"uint256"}],"stateMutability":"view"},{"type":"function","name":"transfer","inputs":[{"name":"to","type":"address","internalType":"address"},{"name":"value","type":"uint256","internalType":"uint256"}],"outputs":[{"name":"","type":"bool","internalType":"bool"}],"stateMutability":"nonpayable"},{"type":"function","name":"transferFrom","inputs":[{"name":"from","type":"address","internalType":"address"},{"name":"to","type":"address","internalType":"address"},{"name":"value","type":"uint256","internalType":"uint256"}],"outputs":[{"name":"","type":"bool","internalType":"bool"}],"stateMutability":"nonpayable"},{"type":"function","name":"withdraw","inputs":[{"name":"assets","type":"uint256","internalType":"uint256"},{"name":"receiver","type":"address","internalType":"address"},{"name":"owner","type":"address","internalType":"address"}],"outputs":[{"name":"","type":"uint256","internalType":"uint256"}],"stateMutability":"nonpayable"},{"type":"event","name":"Approval","inputs":[{"name":"owner","type":"address","indexed":true,"internalType":"address"},{"name":"spender","type":"address","indexed":true,"internalType":"address"},{"name":"value","type":"uint256","indexed":false,"internalType":"uint256"}],"anonymous":false},{"type":"event","name":"Deposit","inputs":[{"name":"sender","type":"address","indexed":true,"internalType":"address"},{"name":"owner","type":"address","indexed":true,"internalType":"address"},{"name":"assets","type":"uint256","indexed":false,"internalType":"uint256"},{"name":"shares","type":"uint256","indexed":false,"internalType":"uint256"}],"anonymous":false},{"type":"event","name":"Transfer","inputs":[{"name":"from","type":"address","indexed":true,"internalType":"address"},{"name":"to","type":"address","indexed":true,"internalType":"address"},{"name":"value","type":"uint256","indexed":false,"internalType":"uint256"}],"anonymous":false},{"type":"event","name":"Withdraw","inputs":[{"name":"sender","type":"address","indexed":true,"internalType":"address"},{"name":"receiver","type":"address","indexed":true,"internalType":"address"},{"name":"owner","type":"address","indexed":true,"internalType":"address"},{"name":"assets","type":"uint256","indexed":false,"internalType":"uint256"},{"name":"shares","type":"uint256","indexed":false,"internalType":"uint256"}],"anonymous":false},{"type":"error","name":"AddressEmptyCode","inputs":[{"name":"target","type":"address","internalType":"address"}]},{"type":"error","name":"AddressInsufficientBalance","inputs":[{"name":"account","type":"address","internalType":"address"}]},{"type":"error","name":"ERC20InsufficientAllowance","inputs":[{"name":"spender","type":"address","internalType":"address"},{"name":"allowance","type":"uint256","internalType":"uint256"},{"name":"needed","type":"uint256","internalType":"uint256"}]},{"type":"error","name":"ERC20InsufficientBalance","inputs":[{"name":"sender","type":"address","internalType":"address"},{"name":"balance","type":"uint256","internalType":"uint256"},{"name":"needed","type":"uint256","internalType":"uint256"}]},{"type":"error","name":"ERC20InvalidApprover","inputs":[{"name":"approver","type":"address","internalType":"address"}]},{"type":"error","name":"ERC20InvalidReceiver","inputs":[{"name":"receiver","type":"address","internalType":"address"}]},{"type":"error","name":"ERC20InvalidSender","inputs":[{"name":"sender","type":"address","internalType":"address"}]},{"type":"error","name":"ERC20InvalidSpender","inputs":[{"name":"spender","type":"address","internalType":"address"}]},{"type":"error","name":"ERC4626ExceededMaxDeposit","inputs":[{"name":"receiver","type":"address","internalType":"address"},{"name":"assets","type":"uint256","internalType":"uint256"},{"name":"max","type":"uint256","internalType":"uint256"}]},{"type":"error","name":"ERC4626ExceededMaxMint","inputs":[{"name":"receiver","type":"address","internalType":"address"},{"name":"shares","type":"uint256","internalType":"uint256"},{"name":"max","type":"uint256","internalType":"uint256"}]},{"type":"error","name":"ERC4626ExceededMaxRedeem","inputs":[{"name":"owner","type":"address","internalType":"address"},{"name":"shares","type":"uint256","internalType":"uint256"},{"name":"max","type":"uint256","internalType":"uint256"}]},{"type":"error","name":"ERC4626ExceededMaxWithdraw","inputs":[{"name":"owner","type":"address","internalType":"address"},{"name":"assets","type":"uint256","internalType":"uint256"},{"name":"max","type":"uint256","internalType":"uint256"}]},{"type":"error","name":"EVERSWAPInsufficientFundsToWithdraw","inputs":[{"name":"owner","type":"address","internalType":"address"},{"name":"assets","type":"uint256","internalType":"uint256"},{"name":"totalAssets","type":"uint256","internalType":"uint256"}]},{"type":"error","name":"FailedInnerCall","inputs":[]},{"type":"error","name":"MathOverflowedMulDiv","inputs":[]},{"type":"error","name":"SafeERC20FailedOperation","inputs":[{"name":"token","type":"address","internalType":"address"}]}],"bytecode":{"object":"0x60c06040523480156200001157600080fd5b50600560009054906101000a90046001600160a01b031660405180604001604052806008815260200167045766572537761760c41b8152506040518060400160405280600381526020016245535760e81b81525081600390816200007691906200027c565b5060046200008582826200027c565b5050506000806200009c83620000f060201b60201c565b9150915081620000ae576012620000b0565b805b60ff1660a05250506001600160a01b0316608052600580546001600160a01b03191673a0b86991c6218b36c1d19d4a2e9eb0ce3606eb4817905562000393565b60408051600481526024810182526020810180516001600160e01b031663313ce56760e01b17905290516000918291829182916001600160a01b03871691620001399162000348565b600060405180830381855afa9150503d806000811462000176576040519150601f19603f3d011682016040523d82523d6000602084013e6200017b565b606091505b50915091508180156200019057506020815110155b15620001c857600081806020019051810190620001ae919062000379565b905060ff8111620001c6576001969095509350505050565b505b5060009485945092505050565b634e487b7160e01b600052604160045260246000fd5b600181811c908216806200020057607f821691505b6020821081036200022157634e487b7160e01b600052602260045260246000fd5b50919050565b601f82111562000277576000816000526020600020601f850160051c81016020861015620002525750805b601f850160051c820191505b8181101562000273578281556001016200025e565b5050505b505050565b81516001600160401b03811115620002985762000298620001d5565b620002b081620002a98454620001eb565b8462000227565b602080601f831160018114620002e85760008415620002cf5750858301515b600019600386901b1c1916600185901b17855562000273565b600085815260208120601f198616915b828110156200031957888601518255948401946001909101908401620002f8565b5085821015620003385787850151600019600388901b60f8161c191681555b5050505050600190811b01905550565b6000825160005b818110156200036b57602081860181015185830152016200034f565b506000920191825250919050565b6000602082840312156200038c57600080fd5b5051919050565b60805160a0516119d8620003c760003960006108020152600081816102a201528181610e530152610f1301526119d86000f3fe608060405234801561001057600080fd5b50600436106101cf5760003560e01c80637d07044a11610104578063b460af94116100a2578063ce96cb7711610071578063ce96cb77146103d0578063d905777e146103e3578063dd62ed3e146103f6578063ef8b30f7146103bd57600080fd5b8063b460af9414610397578063ba087652146103aa578063c63d75b6146102cc578063c6e6f592146103bd57600080fd5b8063955b1ff5116100de578063955b1ff51461035657806395d89b4114610369578063a9059cbb14610371578063b3d7f6b91461038457600080fd5b80637d07044a1461031d5780638d6092301461033057806394bf804d1461034357600080fd5b80632f86556811610171578063402d267d1161014b578063402d267d146102cc5780634cdad506146102045780636e553f65146102e157806370a08231146102f457600080fd5b80632f86556814610268578063313ce5671461027b57806338d52e0f1461029557600080fd5b8063095ea7b3116101ad578063095ea7b3146102175780630a28a4771461023a57806318160ddd1461024d57806323b872dd1461025557600080fd5b806301e1d114146101d457806306fdde03146101ef57806307a2d13a14610204575b600080fd5b6101dc61042f565b6040519081526020015b60405180910390f35b6101f7610586565b6040516101e69190611545565b6101dc610212366004611578565b610618565b61022a6102253660046115ad565b610625565b60405190151581526020016101e6565b6101dc610248366004611578565b61063d565b6002546101dc565b61022a6102633660046115d7565b61064a565b61022a610276366004611613565b610670565b6102836107fa565b60405160ff90911681526020016101e6565b6040516001600160a01b037f00000000000000000000000000000000000000000000000000000000000000001681526020016101e6565b6101dc6102da366004611613565b5060001990565b6101dc6102ef36600461162e565b61082b565b6101dc610302366004611613565b6001600160a01b031660009081526020819052604090205490565b61022a61032b36600461165a565b61092c565b61022a61033e366004611613565b610a87565b6101dc61035136600461162e565b610b1d565b6101dc610364366004611697565b610b43565b6101f7610b4f565b61022a61037f3660046115ad565b610b5e565b6101dc610392366004611578565b610b6c565b6101dc6103a53660046116b9565b610b79565b6101dc6103b83660046116b9565b610c61565b6101dc6103cb366004611578565b610cb9565b6101dc6103de366004611613565b610cc6565b6101dc6103f1366004611613565b610cea565b6101dc6104043660046116f5565b6001600160a01b03918216600090815260016020908152604080832093909416825291909152205490565b6008546005546040516370a0823160e01b8152306004820152600092916001600160a01b0316906370a0823190602401602060405180830381865afa15801561047c573d6000803e3d6000fd5b505050506040513d601f19601f820116820180604052508101906104a0919061171f565b12156105055760405162461bcd60e51b815260206004820152602960248201527f45766572537761703a20496e73756666696369656e742066756e647320746f2060448201526818dbdd995c88141b9360ba1b60648201526084015b60405180910390fd5b6008546005546040516370a0823160e01b8152306004820152600092916001600160a01b0316906370a0823190602401602060405180830381865afa158015610552573d6000803e3d6000fd5b505050506040513d601f19601f82011682018060405250810190610576919061171f565b610580919061174e565b92915050565b60606003805461059590611775565b80601f01602080910402602001604051908101604052809291908181526020018280546105c190611775565b801561060e5780601f106105e35761010080835404028352916020019161060e565b820191906000526020600020905b8154815290600101906020018083116105f157829003601f168201915b5050505050905090565b6000610580826000610d08565b600033610633818585610d42565b5060019392505050565b6000610580826001610d54565b600033610658858285610d84565b610663858585610def565b60019150505b9392505050565b6001600160a01b0381166000908152600e602090815260408083208151606081018352815481526001808301549482019490945260028201548594919384019160ff909116908111156106c5576106c56117af565b60018111156106d6576106d66117af565b905250805160208201519192509060006106f08383610b43565b9050600281111561079757600084604001516001811115610713576107136117af565b0361073557816007600082825461072a91906117c5565b9091555061074d9050565b816009600082825461074791906117c5565b90915550505b6001600160a01b0386166000908152600e6020526040812081815560018101829055600201805460ff19169055600a805485929061078c9084906117d8565b909155506107ee9050565b60405162461bcd60e51b815260206004820152602660248201527f45766572537761703a20426f72726f776572206973206e6f74206c6971756964604482015265617461626c6560d01b60648201526084016104fc565b50600195945050505050565b6000610826817f00000000000000000000000000000000000000000000000000000000000000006117eb565b905090565b60006001600160a01b03821630146108965760405162461bcd60e51b815260206004820152602860248201527f45766572537761703a205265636569766572206d75737420626520746869732060448201526718dbdb9d1c9858dd60c21b60648201526084016104fc565b60001960006108a485610cb9565b90506108b233858784610e4e565b84600a60008282546108c491906117d8565b90915550506001600160a01b0384166000908152600c6020526040812080548392906108f19084906117d8565b90915550506001600160a01b0384166000908152600d60205260408120805487929061091e9084906117d8565b909155509095945050505050565b600061093661042f565b8411156109945760405162461bcd60e51b815260206004820152602660248201527f45766572537761703a20496e73756666696369656e742066756e647320746f20604482015265626f72726f7760d01b60648201526084016104fc565b60008260018111156109a8576109a86117af565b036109ca5783600760008282546109bf91906117d8565b909155506109e29050565b83600960008282546109dc91906117d8565b90915550505b60006040518060600160405280858152602001868152602001846001811115610a0d57610a0d6117af565b9052905080600e6000336001600160a01b03166001600160a01b03168152602001908152602001600020600082015181600001556020820151816001015560408201518160020160006101000a81548160ff02191690836001811115610a7557610a756117af565b02179055506001979650505050505050565b6001600160a01b0381166000908152600e602090815260408083208151606081018352815481526001808301549482019490945260028201548594919384019160ff90911690811115610adc57610adc6117af565b6001811115610aed57610aed6117af565b9052508051602082015191925090600083604001516001811115610b1357610b136117af565b5050505050919050565b60006000196000610b2d85610b6c565b9050610b3b33858388610e4e565b949350505050565b6000610669838361183b565b60606004805461059590611775565b600033610633818585610def565b6000610580826001610d08565b600080610b8583610cc6565b905080851115610bae57828582604051633fa733bb60e21b81526004016104fc93929190611804565b610bb661042f565b851115610be3578285610bc761042f565b6040516308b9bd7d60e01b81526004016104fc93929190611804565b6000610bee8661063d565b9050610bfd3386868985610ee0565b6001600160a01b0384166000908152600c602052604081208054839290610c259084906117c5565b90915550506001600160a01b0384166000908152600d602052604081208054889290610c529084906117c5565b90915550909695505050505050565b600080610c6d83610cea565b905080851115610c9657828582604051632e52afbb60e21b81526004016104fc93929190611804565b6000610ca186610618565b9050610cb0338686848a610ee0565b95945050505050565b6000610580826000610d54565b6001600160a01b038116600090815260208190526040812054610580906000610d08565b6001600160a01b038116600090815260208190526040812054610580565b6000610669610d1561042f565b610d209060016117d8565b610d2c6000600a611933565b600254610d3991906117d8565b85919085610fa0565b610d4f8383836001610fef565b505050565b6000610669610d6482600a611933565b600254610d7191906117d8565b610d7961042f565b610d399060016117d8565b6001600160a01b038381166000908152600160209081526040808320938616835292905220546000198114610de95781811015610dda57828183604051637dc7a0d960e11b81526004016104fc93929190611804565b610de984848484036000610fef565b50505050565b6001600160a01b038316610e1957604051634b637e8f60e11b8152600060048201526024016104fc565b6001600160a01b038216610e435760405163ec442f0560e01b8152600060048201526024016104fc565b610d4f8383836110b6565b610e7a7f00000000000000000000000000000000000000000000000000000000000000008530856111cd565b610e848382611234565b826001600160a01b0316846001600160a01b03167fdcbc1c05240f31ff3ad067ef1ee35ce4997762752e3a095284754544f4c709d78484604051610ed2929190918252602082015260400190565b60405180910390a350505050565b826001600160a01b0316856001600160a01b031614610f0457610f04838683610d84565b610f0e838261126e565b610f397f000000000000000000000000000000000000000000000000000000000000000085846112a4565b826001600160a01b0316846001600160a01b0316866001600160a01b03167ffbde797d201c681b91056529119e0b02407c7bb96a4a2c75c01fc9667232c8db8585604051610f91929190918252602082015260400190565b60405180910390a45050505050565b600080610fae8686866112d5565b9050610fb983611399565b8015610fd5575060008480610fd057610fd0611825565b868809115b15610cb057610fe56001826117d8565b9695505050505050565b6001600160a01b0384166110195760405163e602df0560e01b8152600060048201526024016104fc565b6001600160a01b03831661104357604051634a1406b160e11b8152600060048201526024016104fc565b6001600160a01b0380851660009081526001602090815260408083209387168352929052208290558015610de957826001600160a01b0316846001600160a01b03167f8c5be1e5ebec7d5bd14f71427d1e84f3dd0314c0f7b2291e5b200ac8c7c3b92584604051610ed291815260200190565b6001600160a01b0383166110e15780600260008282546110d691906117d8565b909155506111409050565b6001600160a01b038316600090815260208190526040902054818110156111215783818360405163391434e360e21b81526004016104fc93929190611804565b6001600160a01b03841660009081526020819052604090209082900390555b6001600160a01b03821661115c5760028054829003905561117b565b6001600160a01b03821660009081526020819052604090208054820190555b816001600160a01b0316836001600160a01b03167fddf252ad1be2c89b69c2b068fc378daa952ba7f163c4a11628f55a4df523b3ef836040516111c091815260200190565b60405180910390a3505050565b6040516001600160a01b038481166024830152838116604483015260648201839052610de99186918216906323b872dd906084015b604051602081830303815290604052915060e01b6020820180516001600160e01b0383818316178352505050506113c6565b6001600160a01b03821661125e5760405163ec442f0560e01b8152600060048201526024016104fc565b61126a600083836110b6565b5050565b6001600160a01b03821661129857604051634b637e8f60e11b8152600060048201526024016104fc565b61126a826000836110b6565b6040516001600160a01b03838116602483015260448201839052610d4f91859182169063a9059cbb90606401611202565b600083830281600019858709828110838203039150508060000361130c5783828161130257611302611825565b0492505050610669565b80841161132c5760405163227bc15360e01b815260040160405180910390fd5b6000848688096000868103871696879004966002600389028118808a02820302808a02820302808a02820302808a02820302808a02820302808a02909103029181900381900460010186841190950394909402919094039290920491909117919091029150509392505050565b600060028260038111156113af576113af6117af565b6113b99190611942565b60ff166001149050919050565b60006113db6001600160a01b03841683611429565b905080516000141580156114005750808060200190518101906113fe9190611964565b155b15610d4f57604051635274afe760e01b81526001600160a01b03841660048201526024016104fc565b60606106698383600084600080856001600160a01b0316848660405161144f9190611986565b60006040518083038185875af1925050503d806000811461148c576040519150601f19603f3d011682016040523d82523d6000602084013e611491565b606091505b5091509150610fe58683836060826114b1576114ac826114f8565b610669565b81511580156114c857506001600160a01b0384163b155b156114f157604051639996b31560e01b81526001600160a01b03851660048201526024016104fc565b5080610669565b8051156115085780518082602001fd5b604051630a12f52160e11b815260040160405180910390fd5b60005b8381101561153c578181015183820152602001611524565b50506000910152565b6020815260008251806020840152611564816040850160208701611521565b601f01601f19169190910160400192915050565b60006020828403121561158a57600080fd5b5035919050565b80356001600160a01b03811681146115a857600080fd5b919050565b600080604083850312156115c057600080fd5b6115c983611591565b946020939093013593505050565b6000806000606084860312156115ec57600080fd5b6115f584611591565b925061160360208501611591565b9150604084013590509250925092565b60006020828403121561162557600080fd5b61066982611591565b6000806040838503121561164157600080fd5b8235915061165160208401611591565b90509250929050565b60008060006060848603121561166f57600080fd5b833592506020840135915060408401356002811061168c57600080fd5b809150509250925092565b600080604083850312156116aa57600080fd5b50508035926020909101359150565b6000806000606084860312156116ce57600080fd5b833592506116de60208501611591565b91506116ec60408501611591565b90509250925092565b6000806040838503121561170857600080fd5b61171183611591565b915061165160208401611591565b60006020828403121561173157600080fd5b5051919050565b634e487b7160e01b600052601160045260246000fd5b818103600083128015838313168383128216171561176e5761176e611738565b5092915050565b600181811c9082168061178957607f821691505b6020821081036117a957634e487b7160e01b600052602260045260246000fd5b50919050565b634e487b7160e01b600052602160045260246000fd5b8181038181111561058057610580611738565b8082018082111561058057610580611738565b60ff818116838216019081111561058057610580611738565b6001600160a01b039390931683526020830191909152604082015260600190565b634e487b7160e01b600052601260045260246000fd5b60008261184a5761184a611825565b500490565b600181815b8085111561188a57816000190482111561187057611870611738565b8085161561187d57918102915b93841c9390800290611854565b509250929050565b6000826118a157506001610580565b816118ae57506000610580565b81600181146118c457600281146118ce576118ea565b6001915050610580565b60ff8411156118df576118df611738565b50506001821b610580565b5060208310610133831016604e8410600b841016171561190d575081810a610580565b611917838361184f565b806000190482111561192b5761192b611738565b029392505050565b600061066960ff841683611892565b600060ff83168061195557611955611825565b8060ff84160691505092915050565b60006020828403121561197657600080fd5b8151801515811461066957600080fd5b60008251611998818460208701611521565b919091019291505056fea2646970667358221220a91a9513a617d475979c4eccd898f16deabb869eb49575b9a5c91c47f06ba7a664736f6c63430008170033","linkReferences":{}},"methodIdentifiers":{"allowance(address,address)":"dd62ed3e","approve(address,uint256)":"095ea7b3","asset()":"38d52e0f","balanceOf(address)":"70a08231","borrow(uint256,uint256,uint8)":"7d07044a","calculateLeverage(uint256,uint256)":"955b1ff5","closeBorrowerPosition(address)":"8d609230","convertToAssets(uint256)":"07a2d13a","convertToShares(uint256)":"c6e6f592","decimals()":"313ce567","deposit(uint256,address)":"6e553f65","liquidate(address)":"2f865568","maxDeposit(address)":"402d267d","maxMint(address)":"c63d75b6","maxRedeem(address)":"d905777e","maxWithdraw(address)":"ce96cb77","mint(uint256,address)":"94bf804d","name()":"06fdde03","previewDeposit(uint256)":"ef8b30f7","previewMint(uint256)":"b3d7f6b9","previewRedeem(uint256)":"4cdad506","previewWithdraw(uint256)":"0a28a477","redeem(uint256,address,address)":"ba087652","symbol()":"95d89b41","totalAssets()":"01e1d114","totalSupply()":"18160ddd","transfer(address,uint256)":"a9059cbb","transferFrom(address,address,uint256)":"23b872dd","withdraw(uint256,address,address)":"b460af94"},"storageLayout":{"storage":[{"astId":44949,"contract":"src/EverSwap.sol:EverSwap","label":"_balances","offset":0,"slot":"0","type":"t_mapping(t_address,t_uint256)"},{"astId":44955,"contract":"src/EverSwap.sol:EverSwap","label":"_allowances","offset":0,"slot":"1","type":"t_mapping(t_address,t_mapping(t_address,t_uint256))"},{"astId":44957,"contract":"src/EverSwap.sol:EverSwap","label":"_totalSupply","offset":0,"slot":"2","type":"t_uint256"},{"astId":44959,"contract":"src/EverSwap.sol:EverSwap","label":"_name","offset":0,"slot":"3","type":"t_string_storage"},{"astId":44961,"contract":"src/EverSwap.sol:EverSwap","label":"_symbol","offset":0,"slot":"4","type":"t_string_storage"},{"astId":47949,"contract":"src/EverSwap.sol:EverSwap","label":"usdc_token","offset":0,"slot":"5","type":"t_contract(IERC20)45519"},{"astId":47959,"contract":"src/EverSwap.sol:EverSwap","label":"LPValue","offset":0,"slot":"6","type":"t_uint256"},{"astId":47961,"contract":"src/EverSwap.sol:EverSwap","label":"totalOpenInterest","offset":0,"slot":"7","type":"t_uint256"},{"astId":47963,"contract":"src/EverSwap.sol:EverSwap","label":"currentPnL","offset":0,"slot":"8","type":"t_int256"},{"astId":47965,"contract":"src/EverSwap.sol:EverSwap","label":"totalCloseInterest","offset":0,"slot":"9","type":"t_uint256"},{"astId":47967,"contract":"src/EverSwap.sol:EverSwap","label":"totalDeposits","offset":0,"slot":"10","type":"t_uint256"},{"astId":47969,"contract":"src/EverSwap.sol:EverSwap","label":"totalShares","offset":0,"slot":"11","type":"t_uint256"},{"astId":47973,"contract":"src/EverSwap.sol:EverSwap","label":"addressToShares","offset":0,"slot":"12","type":"t_mapping(t_address,t_uint256)"},{"astId":47977,"contract":"src/EverSwap.sol:EverSwap","label":"addressToDeposits","offset":0,"slot":"13","type":"t_mapping(t_address,t_uint256)"},{"astId":47982,"contract":"src/EverSwap.sol:EverSwap","label":"addressToBorrower","offset":0,"slot":"14","type":"t_mapping(t_address,t_struct(Borrower)47957_storage)"}],"types":{"t_address":{"encoding":"inplace","label":"address","numberOfBytes":"20"},"t_contract(IERC20)45519":{"encoding":"inplace","label":"contract IERC20","numberOfBytes":"20"},"t_enum(Position)47985":{"encoding":"inplace","label":"enum EverSwap.Position","numberOfBytes":"1"},"t_int256":{"encoding":"inplace","label":"int256","numberOfBytes":"32"},"t_mapping(t_address,t_mapping(t_address,t_uint256))":{"encoding":"mapping","key":"t_address","label":"mapping(address => mapping(address => uint256))","numberOfBytes":"32","value":"t_mapping(t_address,t_uint256)"},"t_mapping(t_address,t_struct(Borrower)47957_storage)":{"encoding":"mapping","key":"t_address","label":"mapping(address => struct EverSwap.Borrower)","numberOfBytes":"32","value":"t_struct(Borrower)47957_storage"},"t_mapping(t_address,t_uint256)":{"encoding":"mapping","key":"t_address","label":"mapping(address => uint256)","numberOfBytes":"32","value":"t_uint256"},"t_string_storage":{"encoding":"bytes","label":"string","numberOfBytes":"32"},"t_struct(Borrower)47957_storage":{"encoding":"inplace","label":"struct EverSwap.Borrower","numberOfBytes":"96","members":[{"astId":47951,"contract":"src/EverSwap.sol:EverSwap","label":"collateral","offset":0,"slot":"0","type":"t_uint256"},{"astId":47953,"contract":"src/EverSwap.sol:EverSwap","label":"debt","offset":0,"slot":"1","type":"t_uint256"},{"astId":47956,"contract":"src/EverSwap.sol:EverSwap","label":"position","offset":0,"slot":"2","type":"t_enum(Position)47985"}]},"t_uint256":{"encoding":"inplace","label":"uint256","numberOfBytes":"32"}}},"id":34}